{
	"contracts/challenge.sol": {
		"Simple": {
			"abi": [
				{
					"inputs": [],
					"name": "TorF",
					"outputs": [
						{
							"internalType": "bool",
							"name": "",
							"type": "bool"
						}
					],
					"stateMutability": "view",
					"type": "function"
				},
				{
					"inputs": [],
					"name": "a",
					"outputs": [
						{
							"internalType": "int256",
							"name": "",
							"type": "int256"
						}
					],
					"stateMutability": "view",
					"type": "function"
				},
				{
					"inputs": [],
					"name": "b",
					"outputs": [
						{
							"internalType": "uint256",
							"name": "",
							"type": "uint256"
						}
					],
					"stateMutability": "view",
					"type": "function"
				},
				{
					"inputs": [],
					"name": "getA",
					"outputs": [
						{
							"internalType": "int256",
							"name": "",
							"type": "int256"
						}
					],
					"stateMutability": "view",
					"type": "function"
				},
				{
					"inputs": [],
					"name": "getB",
					"outputs": [
						{
							"internalType": "uint256",
							"name": "",
							"type": "uint256"
						}
					],
					"stateMutability": "view",
					"type": "function"
				},
				{
					"inputs": [],
					"name": "getX",
					"outputs": [
						{
							"internalType": "string",
							"name": "",
							"type": "string"
						}
					],
					"stateMutability": "view",
					"type": "function"
				},
				{
					"inputs": [
						{
							"internalType": "int256",
							"name": "_a",
							"type": "int256"
						}
					],
					"name": "setA",
					"outputs": [],
					"stateMutability": "nonpayable",
					"type": "function"
				},
				{
					"inputs": [
						{
							"internalType": "uint256",
							"name": "_b",
							"type": "uint256"
						}
					],
					"name": "setB",
					"outputs": [],
					"stateMutability": "nonpayable",
					"type": "function"
				},
				{
					"inputs": [],
					"name": "setTorF",
					"outputs": [
						{
							"internalType": "bool",
							"name": "",
							"type": "bool"
						}
					],
					"stateMutability": "view",
					"type": "function"
				},
				{
					"inputs": [
						{
							"internalType": "bool",
							"name": "_TorF",
							"type": "bool"
						}
					],
					"name": "setTorF",
					"outputs": [],
					"stateMutability": "nonpayable",
					"type": "function"
				},
				{
					"inputs": [
						{
							"internalType": "string",
							"name": "_x",
							"type": "string"
						}
					],
					"name": "setX",
					"outputs": [],
					"stateMutability": "nonpayable",
					"type": "function"
				},
				{
					"inputs": [],
					"name": "x",
					"outputs": [
						{
							"internalType": "string",
							"name": "",
							"type": "string"
						}
					],
					"stateMutability": "view",
					"type": "function"
				}
			],
			"devdoc": {
				"kind": "dev",
				"methods": {},
				"version": 1
			},
			"evm": {
				"assembly": "    /* \"contracts/challenge.sol\":56:778  contract Simple\r... */\n  mstore(0x40, 0x80)\n  callvalue\n  dup1\n  iszero\n  tag_1\n  jumpi\n  0x00\n  dup1\n  revert\ntag_1:\n  pop\n  dataSize(sub_0)\n  dup1\n  dataOffset(sub_0)\n  0x00\n  codecopy\n  0x00\n  return\nstop\n\nsub_0: assembly {\n        /* \"contracts/challenge.sol\":56:778  contract Simple\r... */\n      mstore(0x40, 0x80)\n      callvalue\n      dup1\n      iszero\n      tag_1\n      jumpi\n      0x00\n      dup1\n      revert\n    tag_1:\n      pop\n      jumpi(tag_2, lt(calldatasize, 0x04))\n      shr(0xe0, calldataload(0x00))\n      dup1\n      0x612d9978\n      gt\n      tag_15\n      jumpi\n      dup1\n      0x612d9978\n      eq\n      tag_9\n      jumpi\n      dup1\n      0x6cabc400\n      eq\n      tag_10\n      jumpi\n      dup1\n      0xa1c51915\n      eq\n      tag_11\n      jumpi\n      dup1\n      0xc23558ad\n      eq\n      tag_12\n      jumpi\n      dup1\n      0xd46300fd\n      eq\n      tag_13\n      jumpi\n      dup1\n      0xfa2e6f89\n      eq\n      tag_14\n      jumpi\n      jump(tag_2)\n    tag_15:\n      dup1\n      0x09cdcf9b\n      eq\n      tag_3\n      jumpi\n      dup1\n      0x0c55699c\n      eq\n      tag_4\n      jumpi\n      dup1\n      0x0dbe671f\n      eq\n      tag_5\n      jumpi\n      dup1\n      0x3d6f9868\n      eq\n      tag_6\n      jumpi\n      dup1\n      0x4df7e3d0\n      eq\n      tag_7\n      jumpi\n      dup1\n      0x5197c7aa\n      eq\n      tag_8\n      jumpi\n    tag_2:\n      0x00\n      dup1\n      revert\n        /* \"contracts/challenge.sol\":307:367  function setB(uint _b) public \r... */\n    tag_3:\n      tag_16\n      0x04\n      dup1\n      calldatasize\n      sub\n      dup2\n      add\n      swap1\n      tag_17\n      swap2\n      swap1\n      tag_18\n      jump\t// in\n    tag_17:\n      tag_19\n      jump\t// in\n    tag_16:\n      stop\n        /* \"contracts/challenge.sol\":119:134  string public x */\n    tag_4:\n      tag_20\n      tag_21\n      jump\t// in\n    tag_20:\n      mload(0x40)\n      tag_22\n      swap2\n      swap1\n      tag_23\n      jump\t// in\n    tag_22:\n      mload(0x40)\n      dup1\n      swap2\n      sub\n      swap1\n      return\n        /* \"contracts/challenge.sol\":80:92  int public a */\n    tag_5:\n      tag_24\n      tag_25\n      jump\t// in\n    tag_24:\n      mload(0x40)\n      tag_26\n      swap2\n      swap1\n      tag_27\n      jump\t// in\n    tag_26:\n      mload(0x40)\n      dup1\n      swap2\n      sub\n      swap1\n      return\n        /* \"contracts/challenge.sol\":693:773  function setTorF() public view returns(bool)\r... */\n    tag_6:\n      tag_28\n      tag_29\n      jump\t// in\n    tag_28:\n      mload(0x40)\n      tag_30\n      swap2\n      swap1\n      tag_31\n      jump\t// in\n    tag_30:\n      mload(0x40)\n      dup1\n      swap2\n      sub\n      swap1\n      return\n        /* \"contracts/challenge.sol\":99:112  uint public b */\n    tag_7:\n      tag_32\n      tag_33\n      jump\t// in\n    tag_32:\n      mload(0x40)\n      tag_34\n      swap2\n      swap1\n      tag_35\n      jump\t// in\n    tag_34:\n      mload(0x40)\n      dup1\n      swap2\n      sub\n      swap1\n      return\n        /* \"contracts/challenge.sol\":527:610  function getX() public view returns(string memory)\r... */\n    tag_8:\n      tag_36\n      tag_37\n      jump\t// in\n    tag_36:\n      mload(0x40)\n      tag_38\n      swap2\n      swap1\n      tag_23\n      jump\t// in\n    tag_38:\n      mload(0x40)\n      dup1\n      swap2\n      sub\n      swap1\n      return\n        /* \"contracts/challenge.sol\":453:521  function setX(string memory _x) public\r... */\n    tag_9:\n      tag_39\n      0x04\n      dup1\n      calldatasize\n      sub\n      dup2\n      add\n      swap1\n      tag_40\n      swap2\n      swap1\n      tag_41\n      jump\t// in\n    tag_40:\n      tag_42\n      jump\t// in\n    tag_39:\n      stop\n        /* \"contracts/challenge.sol\":164:222  function setA(int _a) public \r... */\n    tag_10:\n      tag_43\n      0x04\n      dup1\n      calldatasize\n      sub\n      dup2\n      add\n      swap1\n      tag_44\n      swap2\n      swap1\n      tag_45\n      jump\t// in\n    tag_44:\n      tag_46\n      jump\t// in\n    tag_43:\n      stop\n        /* \"contracts/challenge.sol\":373:447  function getB() public view returns(uint)\r... */\n    tag_11:\n      tag_47\n      tag_48\n      jump\t// in\n    tag_47:\n      mload(0x40)\n      tag_49\n      swap2\n      swap1\n      tag_35\n      jump\t// in\n    tag_49:\n      mload(0x40)\n      dup1\n      swap2\n      sub\n      swap1\n      return\n        /* \"contracts/challenge.sol\":141:157  bool public TorF */\n    tag_12:\n      tag_50\n      tag_51\n      jump\t// in\n    tag_50:\n      mload(0x40)\n      tag_52\n      swap2\n      swap1\n      tag_31\n      jump\t// in\n    tag_52:\n      mload(0x40)\n      dup1\n      swap2\n      sub\n      swap1\n      return\n        /* \"contracts/challenge.sol\":228:301  function getA() public view returns(int)\r... */\n    tag_13:\n      tag_53\n      tag_54\n      jump\t// in\n    tag_53:\n      mload(0x40)\n      tag_55\n      swap2\n      swap1\n      tag_27\n      jump\t// in\n    tag_55:\n      mload(0x40)\n      dup1\n      swap2\n      sub\n      swap1\n      return\n        /* \"contracts/challenge.sol\":616:687  function setTorF(bool _TorF) public\r... */\n    tag_14:\n      tag_56\n      0x04\n      dup1\n      calldatasize\n      sub\n      dup2\n      add\n      swap1\n      tag_57\n      swap2\n      swap1\n      tag_58\n      jump\t// in\n    tag_57:\n      tag_59\n      jump\t// in\n    tag_56:\n      stop\n        /* \"contracts/challenge.sol\":307:367  function setB(uint _b) public \r... */\n    tag_19:\n        /* \"contracts/challenge.sol\":357:359  _b */\n      dup1\n        /* \"contracts/challenge.sol\":354:355  b */\n      0x01\n        /* \"contracts/challenge.sol\":354:359  b= _b */\n      dup2\n      swap1\n      sstore\n      pop\n        /* \"contracts/challenge.sol\":307:367  function setB(uint _b) public \r... */\n      pop\n      jump\t// out\n        /* \"contracts/challenge.sol\":119:134  string public x */\n    tag_21:\n      0x02\n      dup1\n      sload\n      tag_61\n      swap1\n      tag_62\n      jump\t// in\n    tag_61:\n      dup1\n      0x1f\n      add\n      0x20\n      dup1\n      swap2\n      div\n      mul\n      0x20\n      add\n      mload(0x40)\n      swap1\n      dup2\n      add\n      0x40\n      mstore\n      dup1\n      swap3\n      swap2\n      swap1\n      dup2\n      dup2\n      mstore\n      0x20\n      add\n      dup3\n      dup1\n      sload\n      tag_63\n      swap1\n      tag_62\n      jump\t// in\n    tag_63:\n      dup1\n      iszero\n      tag_64\n      jumpi\n      dup1\n      0x1f\n      lt\n      tag_65\n      jumpi\n      0x0100\n      dup1\n      dup4\n      sload\n      div\n      mul\n      dup4\n      mstore\n      swap2\n      0x20\n      add\n      swap2\n      jump(tag_64)\n    tag_65:\n      dup3\n      add\n      swap2\n      swap1\n      0x00\n      mstore\n      keccak256(0x00, 0x20)\n      swap1\n    tag_66:\n      dup2\n      sload\n      dup2\n      mstore\n      swap1\n      0x01\n      add\n      swap1\n      0x20\n      add\n      dup1\n      dup4\n      gt\n      tag_66\n      jumpi\n      dup3\n      swap1\n      sub\n      0x1f\n      and\n      dup3\n      add\n      swap2\n    tag_64:\n      pop\n      pop\n      pop\n      pop\n      pop\n      dup2\n      jump\t// out\n        /* \"contracts/challenge.sol\":80:92  int public a */\n    tag_25:\n      sload(0x00)\n      dup2\n      jump\t// out\n        /* \"contracts/challenge.sol\":693:773  function setTorF() public view returns(bool)\r... */\n    tag_29:\n        /* \"contracts/challenge.sol\":732:736  bool */\n      0x00\n        /* \"contracts/challenge.sol\":761:765  TorF */\n      0x03\n      0x00\n      swap1\n      sload\n      swap1\n      0x0100\n      exp\n      swap1\n      div\n      0xff\n      and\n        /* \"contracts/challenge.sol\":754:765  return TorF */\n      swap1\n      pop\n        /* \"contracts/challenge.sol\":693:773  function setTorF() public view returns(bool)\r... */\n      swap1\n      jump\t// out\n        /* \"contracts/challenge.sol\":99:112  uint public b */\n    tag_33:\n      sload(0x01)\n      dup2\n      jump\t// out\n        /* \"contracts/challenge.sol\":527:610  function getX() public view returns(string memory)\r... */\n    tag_37:\n        /* \"contracts/challenge.sol\":563:576  string memory */\n      0x60\n        /* \"contracts/challenge.sol\":601:602  x */\n      0x02\n        /* \"contracts/challenge.sol\":594:602  return x */\n      dup1\n      sload\n      tag_69\n      swap1\n      tag_62\n      jump\t// in\n    tag_69:\n      dup1\n      0x1f\n      add\n      0x20\n      dup1\n      swap2\n      div\n      mul\n      0x20\n      add\n      mload(0x40)\n      swap1\n      dup2\n      add\n      0x40\n      mstore\n      dup1\n      swap3\n      swap2\n      swap1\n      dup2\n      dup2\n      mstore\n      0x20\n      add\n      dup3\n      dup1\n      sload\n      tag_70\n      swap1\n      tag_62\n      jump\t// in\n    tag_70:\n      dup1\n      iszero\n      tag_71\n      jumpi\n      dup1\n      0x1f\n      lt\n      tag_72\n      jumpi\n      0x0100\n      dup1\n      dup4\n      sload\n      div\n      mul\n      dup4\n      mstore\n      swap2\n      0x20\n      add\n      swap2\n      jump(tag_71)\n    tag_72:\n      dup3\n      add\n      swap2\n      swap1\n      0x00\n      mstore\n      keccak256(0x00, 0x20)\n      swap1\n    tag_73:\n      dup2\n      sload\n      dup2\n      mstore\n      swap1\n      0x01\n      add\n      swap1\n      0x20\n      add\n      dup1\n      dup4\n      gt\n      tag_73\n      jumpi\n      dup3\n      swap1\n      sub\n      0x1f\n      and\n      dup3\n      add\n      swap2\n    tag_71:\n      pop\n      pop\n      pop\n      pop\n      pop\n      swap1\n      pop\n        /* \"contracts/challenge.sol\":527:610  function getX() public view returns(string memory)\r... */\n      swap1\n      jump\t// out\n        /* \"contracts/challenge.sol\":453:521  function setX(string memory _x) public\r... */\n    tag_42:\n        /* \"contracts/challenge.sol\":511:513  _x */\n      dup1\n        /* \"contracts/challenge.sol\":508:509  x */\n      0x02\n        /* \"contracts/challenge.sol\":508:513  x= _x */\n      swap1\n      dup1\n      mload\n      swap1\n      0x20\n      add\n      swap1\n      tag_75\n      swap3\n      swap2\n      swap1\n      tag_76\n      jump\t// in\n    tag_75:\n      pop\n        /* \"contracts/challenge.sol\":453:521  function setX(string memory _x) public\r... */\n      pop\n      jump\t// out\n        /* \"contracts/challenge.sol\":164:222  function setA(int _a) public \r... */\n    tag_46:\n        /* \"contracts/challenge.sol\":212:214  _a */\n      dup1\n        /* \"contracts/challenge.sol\":210:211  a */\n      0x00\n        /* \"contracts/challenge.sol\":210:214  a=_a */\n      dup2\n      swap1\n      sstore\n      pop\n        /* \"contracts/challenge.sol\":164:222  function setA(int _a) public \r... */\n      pop\n      jump\t// out\n        /* \"contracts/challenge.sol\":373:447  function getB() public view returns(uint)\r... */\n    tag_48:\n        /* \"contracts/challenge.sol\":409:413  uint */\n      0x00\n        /* \"contracts/challenge.sol\":438:439  b */\n      sload(0x01)\n        /* \"contracts/challenge.sol\":431:439  return b */\n      swap1\n      pop\n        /* \"contracts/challenge.sol\":373:447  function getB() public view returns(uint)\r... */\n      swap1\n      jump\t// out\n        /* \"contracts/challenge.sol\":141:157  bool public TorF */\n    tag_51:\n      0x03\n      0x00\n      swap1\n      sload\n      swap1\n      0x0100\n      exp\n      swap1\n      div\n      0xff\n      and\n      dup2\n      jump\t// out\n        /* \"contracts/challenge.sol\":228:301  function getA() public view returns(int)\r... */\n    tag_54:\n        /* \"contracts/challenge.sol\":264:267  int */\n      0x00\n        /* \"contracts/challenge.sol\":292:293  a */\n      dup1\n      sload\n        /* \"contracts/challenge.sol\":285:293  return a */\n      swap1\n      pop\n        /* \"contracts/challenge.sol\":228:301  function getA() public view returns(int)\r... */\n      swap1\n      jump\t// out\n        /* \"contracts/challenge.sol\":616:687  function setTorF(bool _TorF) public\r... */\n    tag_59:\n        /* \"contracts/challenge.sol\":674:679  _TorF */\n      dup1\n        /* \"contracts/challenge.sol\":668:672  TorF */\n      0x03\n      0x00\n        /* \"contracts/challenge.sol\":668:679  TorF= _TorF */\n      0x0100\n      exp\n      dup2\n      sload\n      dup2\n      0xff\n      mul\n      not\n      and\n      swap1\n      dup4\n      iszero\n      iszero\n      mul\n      or\n      swap1\n      sstore\n      pop\n        /* \"contracts/challenge.sol\":616:687  function setTorF(bool _TorF) public\r... */\n      pop\n      jump\t// out\n    tag_76:\n      dup3\n      dup1\n      sload\n      tag_81\n      swap1\n      tag_62\n      jump\t// in\n    tag_81:\n      swap1\n      0x00\n      mstore\n      keccak256(0x00, 0x20)\n      swap1\n      0x1f\n      add\n      0x20\n      swap1\n      div\n      dup2\n      add\n      swap3\n      dup3\n      tag_83\n      jumpi\n      0x00\n      dup6\n      sstore\n      jump(tag_82)\n    tag_83:\n      dup3\n      0x1f\n      lt\n      tag_84\n      jumpi\n      dup1\n      mload\n      not(0xff)\n      and\n      dup4\n      dup1\n      add\n      or\n      dup6\n      sstore\n      jump(tag_82)\n    tag_84:\n      dup3\n      dup1\n      add\n      0x01\n      add\n      dup6\n      sstore\n      dup3\n      iszero\n      tag_82\n      jumpi\n      swap2\n      dup3\n      add\n    tag_85:\n      dup3\n      dup2\n      gt\n      iszero\n      tag_86\n      jumpi\n      dup3\n      mload\n      dup3\n      sstore\n      swap2\n      0x20\n      add\n      swap2\n      swap1\n      0x01\n      add\n      swap1\n      jump(tag_85)\n    tag_86:\n    tag_82:\n      pop\n      swap1\n      pop\n      tag_87\n      swap2\n      swap1\n      tag_88\n      jump\t// in\n    tag_87:\n      pop\n      swap1\n      jump\t// out\n    tag_88:\n    tag_89:\n      dup1\n      dup3\n      gt\n      iszero\n      tag_90\n      jumpi\n      0x00\n      dup2\n      0x00\n      swap1\n      sstore\n      pop\n      0x01\n      add\n      jump(tag_89)\n    tag_90:\n      pop\n      swap1\n      jump\t// out\n        /* \"#utility.yul\":7:419   */\n    tag_92:\n        /* \"#utility.yul\":85:90   */\n      0x00\n        /* \"#utility.yul\":110:176   */\n      tag_94\n        /* \"#utility.yul\":126:175   */\n      tag_95\n        /* \"#utility.yul\":168:174   */\n      dup5\n        /* \"#utility.yul\":126:175   */\n      tag_96\n      jump\t// in\n    tag_95:\n        /* \"#utility.yul\":110:176   */\n      tag_97\n      jump\t// in\n    tag_94:\n        /* \"#utility.yul\":101:176   */\n      swap1\n      pop\n        /* \"#utility.yul\":199:205   */\n      dup3\n        /* \"#utility.yul\":192:197   */\n      dup2\n        /* \"#utility.yul\":185:206   */\n      mstore\n        /* \"#utility.yul\":237:241   */\n      0x20\n        /* \"#utility.yul\":230:235   */\n      dup2\n        /* \"#utility.yul\":226:242   */\n      add\n        /* \"#utility.yul\":275:278   */\n      dup5\n        /* \"#utility.yul\":266:272   */\n      dup5\n        /* \"#utility.yul\":261:264   */\n      dup5\n        /* \"#utility.yul\":257:273   */\n      add\n        /* \"#utility.yul\":254:279   */\n      gt\n        /* \"#utility.yul\":251:363   */\n      iszero\n      tag_98\n      jumpi\n        /* \"#utility.yul\":282:361   */\n      tag_99\n      tag_100\n      jump\t// in\n    tag_99:\n        /* \"#utility.yul\":251:363   */\n    tag_98:\n        /* \"#utility.yul\":372:413   */\n      tag_101\n        /* \"#utility.yul\":406:412   */\n      dup5\n        /* \"#utility.yul\":401:404   */\n      dup3\n        /* \"#utility.yul\":396:399   */\n      dup6\n        /* \"#utility.yul\":372:413   */\n      tag_102\n      jump\t// in\n    tag_101:\n        /* \"#utility.yul\":91:419   */\n      pop\n        /* \"#utility.yul\":7:419   */\n      swap4\n      swap3\n      pop\n      pop\n      pop\n      jump\t// out\n        /* \"#utility.yul\":425:558   */\n    tag_103:\n        /* \"#utility.yul\":468:473   */\n      0x00\n        /* \"#utility.yul\":506:512   */\n      dup2\n        /* \"#utility.yul\":493:513   */\n      calldataload\n        /* \"#utility.yul\":484:513   */\n      swap1\n      pop\n        /* \"#utility.yul\":522:552   */\n      tag_105\n        /* \"#utility.yul\":546:551   */\n      dup2\n        /* \"#utility.yul\":522:552   */\n      tag_106\n      jump\t// in\n    tag_105:\n        /* \"#utility.yul\":425:558   */\n      swap3\n      swap2\n      pop\n      pop\n      jump\t// out\n        /* \"#utility.yul\":564:701   */\n    tag_107:\n        /* \"#utility.yul\":609:614   */\n      0x00\n        /* \"#utility.yul\":647:653   */\n      dup2\n        /* \"#utility.yul\":634:654   */\n      calldataload\n        /* \"#utility.yul\":625:654   */\n      swap1\n      pop\n        /* \"#utility.yul\":663:695   */\n      tag_109\n        /* \"#utility.yul\":689:694   */\n      dup2\n        /* \"#utility.yul\":663:695   */\n      tag_110\n      jump\t// in\n    tag_109:\n        /* \"#utility.yul\":564:701   */\n      swap3\n      swap2\n      pop\n      pop\n      jump\t// out\n        /* \"#utility.yul\":721:1061   */\n    tag_111:\n        /* \"#utility.yul\":777:782   */\n      0x00\n        /* \"#utility.yul\":826:829   */\n      dup3\n        /* \"#utility.yul\":819:823   */\n      0x1f\n        /* \"#utility.yul\":811:817   */\n      dup4\n        /* \"#utility.yul\":807:824   */\n      add\n        /* \"#utility.yul\":803:830   */\n      slt\n        /* \"#utility.yul\":793:915   */\n      tag_113\n      jumpi\n        /* \"#utility.yul\":834:913   */\n      tag_114\n      tag_115\n      jump\t// in\n    tag_114:\n        /* \"#utility.yul\":793:915   */\n    tag_113:\n        /* \"#utility.yul\":951:957   */\n      dup2\n        /* \"#utility.yul\":938:958   */\n      calldataload\n        /* \"#utility.yul\":976:1055   */\n      tag_116\n        /* \"#utility.yul\":1051:1054   */\n      dup5\n        /* \"#utility.yul\":1043:1049   */\n      dup3\n        /* \"#utility.yul\":1036:1040   */\n      0x20\n        /* \"#utility.yul\":1028:1034   */\n      dup7\n        /* \"#utility.yul\":1024:1041   */\n      add\n        /* \"#utility.yul\":976:1055   */\n      tag_92\n      jump\t// in\n    tag_116:\n        /* \"#utility.yul\":967:1055   */\n      swap2\n      pop\n        /* \"#utility.yul\":783:1061   */\n      pop\n        /* \"#utility.yul\":721:1061   */\n      swap3\n      swap2\n      pop\n      pop\n      jump\t// out\n        /* \"#utility.yul\":1067:1206   */\n    tag_117:\n        /* \"#utility.yul\":1113:1118   */\n      0x00\n        /* \"#utility.yul\":1151:1157   */\n      dup2\n        /* \"#utility.yul\":1138:1158   */\n      calldataload\n        /* \"#utility.yul\":1129:1158   */\n      swap1\n      pop\n        /* \"#utility.yul\":1167:1200   */\n      tag_119\n        /* \"#utility.yul\":1194:1199   */\n      dup2\n        /* \"#utility.yul\":1167:1200   */\n      tag_120\n      jump\t// in\n    tag_119:\n        /* \"#utility.yul\":1067:1206   */\n      swap3\n      swap2\n      pop\n      pop\n      jump\t// out\n        /* \"#utility.yul\":1212:1535   */\n    tag_58:\n        /* \"#utility.yul\":1268:1274   */\n      0x00\n        /* \"#utility.yul\":1317:1319   */\n      0x20\n        /* \"#utility.yul\":1305:1314   */\n      dup3\n        /* \"#utility.yul\":1296:1303   */\n      dup5\n        /* \"#utility.yul\":1292:1315   */\n      sub\n        /* \"#utility.yul\":1288:1320   */\n      slt\n        /* \"#utility.yul\":1285:1404   */\n      iszero\n      tag_122\n      jumpi\n        /* \"#utility.yul\":1323:1402   */\n      tag_123\n      tag_124\n      jump\t// in\n    tag_123:\n        /* \"#utility.yul\":1285:1404   */\n    tag_122:\n        /* \"#utility.yul\":1443:1444   */\n      0x00\n        /* \"#utility.yul\":1468:1518   */\n      tag_125\n        /* \"#utility.yul\":1510:1517   */\n      dup5\n        /* \"#utility.yul\":1501:1507   */\n      dup3\n        /* \"#utility.yul\":1490:1499   */\n      dup6\n        /* \"#utility.yul\":1486:1508   */\n      add\n        /* \"#utility.yul\":1468:1518   */\n      tag_103\n      jump\t// in\n    tag_125:\n        /* \"#utility.yul\":1458:1518   */\n      swap2\n      pop\n        /* \"#utility.yul\":1414:1528   */\n      pop\n        /* \"#utility.yul\":1212:1535   */\n      swap3\n      swap2\n      pop\n      pop\n      jump\t// out\n        /* \"#utility.yul\":1541:1868   */\n    tag_45:\n        /* \"#utility.yul\":1599:1605   */\n      0x00\n        /* \"#utility.yul\":1648:1650   */\n      0x20\n        /* \"#utility.yul\":1636:1645   */\n      dup3\n        /* \"#utility.yul\":1627:1634   */\n      dup5\n        /* \"#utility.yul\":1623:1646   */\n      sub\n        /* \"#utility.yul\":1619:1651   */\n      slt\n        /* \"#utility.yul\":1616:1735   */\n      iszero\n      tag_127\n      jumpi\n        /* \"#utility.yul\":1654:1733   */\n      tag_128\n      tag_124\n      jump\t// in\n    tag_128:\n        /* \"#utility.yul\":1616:1735   */\n    tag_127:\n        /* \"#utility.yul\":1774:1775   */\n      0x00\n        /* \"#utility.yul\":1799:1851   */\n      tag_129\n        /* \"#utility.yul\":1843:1850   */\n      dup5\n        /* \"#utility.yul\":1834:1840   */\n      dup3\n        /* \"#utility.yul\":1823:1832   */\n      dup6\n        /* \"#utility.yul\":1819:1841   */\n      add\n        /* \"#utility.yul\":1799:1851   */\n      tag_107\n      jump\t// in\n    tag_129:\n        /* \"#utility.yul\":1789:1851   */\n      swap2\n      pop\n        /* \"#utility.yul\":1745:1861   */\n      pop\n        /* \"#utility.yul\":1541:1868   */\n      swap3\n      swap2\n      pop\n      pop\n      jump\t// out\n        /* \"#utility.yul\":1874:2383   */\n    tag_41:\n        /* \"#utility.yul\":1943:1949   */\n      0x00\n        /* \"#utility.yul\":1992:1994   */\n      0x20\n        /* \"#utility.yul\":1980:1989   */\n      dup3\n        /* \"#utility.yul\":1971:1978   */\n      dup5\n        /* \"#utility.yul\":1967:1990   */\n      sub\n        /* \"#utility.yul\":1963:1995   */\n      slt\n        /* \"#utility.yul\":1960:2079   */\n      iszero\n      tag_131\n      jumpi\n        /* \"#utility.yul\":1998:2077   */\n      tag_132\n      tag_124\n      jump\t// in\n    tag_132:\n        /* \"#utility.yul\":1960:2079   */\n    tag_131:\n        /* \"#utility.yul\":2146:2147   */\n      0x00\n        /* \"#utility.yul\":2135:2144   */\n      dup3\n        /* \"#utility.yul\":2131:2148   */\n      add\n        /* \"#utility.yul\":2118:2149   */\n      calldataload\n        /* \"#utility.yul\":2176:2194   */\n      0xffffffffffffffff\n        /* \"#utility.yul\":2168:2174   */\n      dup2\n        /* \"#utility.yul\":2165:2195   */\n      gt\n        /* \"#utility.yul\":2162:2279   */\n      iszero\n      tag_133\n      jumpi\n        /* \"#utility.yul\":2198:2277   */\n      tag_134\n      tag_135\n      jump\t// in\n    tag_134:\n        /* \"#utility.yul\":2162:2279   */\n    tag_133:\n        /* \"#utility.yul\":2303:2366   */\n      tag_136\n        /* \"#utility.yul\":2358:2365   */\n      dup5\n        /* \"#utility.yul\":2349:2355   */\n      dup3\n        /* \"#utility.yul\":2338:2347   */\n      dup6\n        /* \"#utility.yul\":2334:2356   */\n      add\n        /* \"#utility.yul\":2303:2366   */\n      tag_111\n      jump\t// in\n    tag_136:\n        /* \"#utility.yul\":2293:2366   */\n      swap2\n      pop\n        /* \"#utility.yul\":2089:2376   */\n      pop\n        /* \"#utility.yul\":1874:2383   */\n      swap3\n      swap2\n      pop\n      pop\n      jump\t// out\n        /* \"#utility.yul\":2389:2718   */\n    tag_18:\n        /* \"#utility.yul\":2448:2454   */\n      0x00\n        /* \"#utility.yul\":2497:2499   */\n      0x20\n        /* \"#utility.yul\":2485:2494   */\n      dup3\n        /* \"#utility.yul\":2476:2483   */\n      dup5\n        /* \"#utility.yul\":2472:2495   */\n      sub\n        /* \"#utility.yul\":2468:2500   */\n      slt\n        /* \"#utility.yul\":2465:2584   */\n      iszero\n      tag_138\n      jumpi\n        /* \"#utility.yul\":2503:2582   */\n      tag_139\n      tag_124\n      jump\t// in\n    tag_139:\n        /* \"#utility.yul\":2465:2584   */\n    tag_138:\n        /* \"#utility.yul\":2623:2624   */\n      0x00\n        /* \"#utility.yul\":2648:2701   */\n      tag_140\n        /* \"#utility.yul\":2693:2700   */\n      dup5\n        /* \"#utility.yul\":2684:2690   */\n      dup3\n        /* \"#utility.yul\":2673:2682   */\n      dup6\n        /* \"#utility.yul\":2669:2691   */\n      add\n        /* \"#utility.yul\":2648:2701   */\n      tag_117\n      jump\t// in\n    tag_140:\n        /* \"#utility.yul\":2638:2701   */\n      swap2\n      pop\n        /* \"#utility.yul\":2594:2711   */\n      pop\n        /* \"#utility.yul\":2389:2718   */\n      swap3\n      swap2\n      pop\n      pop\n      jump\t// out\n        /* \"#utility.yul\":2724:2833   */\n    tag_141:\n        /* \"#utility.yul\":2805:2826   */\n      tag_143\n        /* \"#utility.yul\":2820:2825   */\n      dup2\n        /* \"#utility.yul\":2805:2826   */\n      tag_144\n      jump\t// in\n    tag_143:\n        /* \"#utility.yul\":2800:2803   */\n      dup3\n        /* \"#utility.yul\":2793:2827   */\n      mstore\n        /* \"#utility.yul\":2724:2833   */\n      pop\n      pop\n      jump\t// out\n        /* \"#utility.yul\":2839:2954   */\n    tag_145:\n        /* \"#utility.yul\":2924:2947   */\n      tag_147\n        /* \"#utility.yul\":2941:2946   */\n      dup2\n        /* \"#utility.yul\":2924:2947   */\n      tag_148\n      jump\t// in\n    tag_147:\n        /* \"#utility.yul\":2919:2922   */\n      dup3\n        /* \"#utility.yul\":2912:2948   */\n      mstore\n        /* \"#utility.yul\":2839:2954   */\n      pop\n      pop\n      jump\t// out\n        /* \"#utility.yul\":2960:3324   */\n    tag_149:\n        /* \"#utility.yul\":3048:3051   */\n      0x00\n        /* \"#utility.yul\":3076:3115   */\n      tag_151\n        /* \"#utility.yul\":3109:3114   */\n      dup3\n        /* \"#utility.yul\":3076:3115   */\n      tag_152\n      jump\t// in\n    tag_151:\n        /* \"#utility.yul\":3131:3202   */\n      tag_153\n        /* \"#utility.yul\":3195:3201   */\n      dup2\n        /* \"#utility.yul\":3190:3193   */\n      dup6\n        /* \"#utility.yul\":3131:3202   */\n      tag_154\n      jump\t// in\n    tag_153:\n        /* \"#utility.yul\":3124:3202   */\n      swap4\n      pop\n        /* \"#utility.yul\":3211:3263   */\n      tag_155\n        /* \"#utility.yul\":3256:3262   */\n      dup2\n        /* \"#utility.yul\":3251:3254   */\n      dup6\n        /* \"#utility.yul\":3244:3248   */\n      0x20\n        /* \"#utility.yul\":3237:3242   */\n      dup7\n        /* \"#utility.yul\":3233:3249   */\n      add\n        /* \"#utility.yul\":3211:3263   */\n      tag_156\n      jump\t// in\n    tag_155:\n        /* \"#utility.yul\":3288:3317   */\n      tag_157\n        /* \"#utility.yul\":3310:3316   */\n      dup2\n        /* \"#utility.yul\":3288:3317   */\n      tag_158\n      jump\t// in\n    tag_157:\n        /* \"#utility.yul\":3283:3286   */\n      dup5\n        /* \"#utility.yul\":3279:3318   */\n      add\n        /* \"#utility.yul\":3272:3318   */\n      swap2\n      pop\n        /* \"#utility.yul\":3052:3324   */\n      pop\n        /* \"#utility.yul\":2960:3324   */\n      swap3\n      swap2\n      pop\n      pop\n      jump\t// out\n        /* \"#utility.yul\":3330:3448   */\n    tag_159:\n        /* \"#utility.yul\":3417:3441   */\n      tag_161\n        /* \"#utility.yul\":3435:3440   */\n      dup2\n        /* \"#utility.yul\":3417:3441   */\n      tag_162\n      jump\t// in\n    tag_161:\n        /* \"#utility.yul\":3412:3415   */\n      dup3\n        /* \"#utility.yul\":3405:3442   */\n      mstore\n        /* \"#utility.yul\":3330:3448   */\n      pop\n      pop\n      jump\t// out\n        /* \"#utility.yul\":3454:3664   */\n    tag_31:\n        /* \"#utility.yul\":3541:3545   */\n      0x00\n        /* \"#utility.yul\":3579:3581   */\n      0x20\n        /* \"#utility.yul\":3568:3577   */\n      dup3\n        /* \"#utility.yul\":3564:3582   */\n      add\n        /* \"#utility.yul\":3556:3582   */\n      swap1\n      pop\n        /* \"#utility.yul\":3592:3657   */\n      tag_164\n        /* \"#utility.yul\":3654:3655   */\n      0x00\n        /* \"#utility.yul\":3643:3652   */\n      dup4\n        /* \"#utility.yul\":3639:3656   */\n      add\n        /* \"#utility.yul\":3630:3636   */\n      dup5\n        /* \"#utility.yul\":3592:3657   */\n      tag_141\n      jump\t// in\n    tag_164:\n        /* \"#utility.yul\":3454:3664   */\n      swap3\n      swap2\n      pop\n      pop\n      jump\t// out\n        /* \"#utility.yul\":3670:3888   */\n    tag_27:\n        /* \"#utility.yul\":3761:3765   */\n      0x00\n        /* \"#utility.yul\":3799:3801   */\n      0x20\n        /* \"#utility.yul\":3788:3797   */\n      dup3\n        /* \"#utility.yul\":3784:3802   */\n      add\n        /* \"#utility.yul\":3776:3802   */\n      swap1\n      pop\n        /* \"#utility.yul\":3812:3881   */\n      tag_166\n        /* \"#utility.yul\":3878:3879   */\n      0x00\n        /* \"#utility.yul\":3867:3876   */\n      dup4\n        /* \"#utility.yul\":3863:3880   */\n      add\n        /* \"#utility.yul\":3854:3860   */\n      dup5\n        /* \"#utility.yul\":3812:3881   */\n      tag_145\n      jump\t// in\n    tag_166:\n        /* \"#utility.yul\":3670:3888   */\n      swap3\n      swap2\n      pop\n      pop\n      jump\t// out\n        /* \"#utility.yul\":3894:4207   */\n    tag_23:\n        /* \"#utility.yul\":4007:4011   */\n      0x00\n        /* \"#utility.yul\":4045:4047   */\n      0x20\n        /* \"#utility.yul\":4034:4043   */\n      dup3\n        /* \"#utility.yul\":4030:4048   */\n      add\n        /* \"#utility.yul\":4022:4048   */\n      swap1\n      pop\n        /* \"#utility.yul\":4094:4103   */\n      dup2\n        /* \"#utility.yul\":4088:4092   */\n      dup2\n        /* \"#utility.yul\":4084:4104   */\n      sub\n        /* \"#utility.yul\":4080:4081   */\n      0x00\n        /* \"#utility.yul\":4069:4078   */\n      dup4\n        /* \"#utility.yul\":4065:4082   */\n      add\n        /* \"#utility.yul\":4058:4105   */\n      mstore\n        /* \"#utility.yul\":4122:4200   */\n      tag_168\n        /* \"#utility.yul\":4195:4199   */\n      dup2\n        /* \"#utility.yul\":4186:4192   */\n      dup5\n        /* \"#utility.yul\":4122:4200   */\n      tag_149\n      jump\t// in\n    tag_168:\n        /* \"#utility.yul\":4114:4200   */\n      swap1\n      pop\n        /* \"#utility.yul\":3894:4207   */\n      swap3\n      swap2\n      pop\n      pop\n      jump\t// out\n        /* \"#utility.yul\":4213:4435   */\n    tag_35:\n        /* \"#utility.yul\":4306:4310   */\n      0x00\n        /* \"#utility.yul\":4344:4346   */\n      0x20\n        /* \"#utility.yul\":4333:4342   */\n      dup3\n        /* \"#utility.yul\":4329:4347   */\n      add\n        /* \"#utility.yul\":4321:4347   */\n      swap1\n      pop\n        /* \"#utility.yul\":4357:4428   */\n      tag_170\n        /* \"#utility.yul\":4425:4426   */\n      0x00\n        /* \"#utility.yul\":4414:4423   */\n      dup4\n        /* \"#utility.yul\":4410:4427   */\n      add\n        /* \"#utility.yul\":4401:4407   */\n      dup5\n        /* \"#utility.yul\":4357:4428   */\n      tag_159\n      jump\t// in\n    tag_170:\n        /* \"#utility.yul\":4213:4435   */\n      swap3\n      swap2\n      pop\n      pop\n      jump\t// out\n        /* \"#utility.yul\":4441:4570   */\n    tag_97:\n        /* \"#utility.yul\":4475:4481   */\n      0x00\n        /* \"#utility.yul\":4502:4522   */\n      tag_172\n      tag_173\n      jump\t// in\n    tag_172:\n        /* \"#utility.yul\":4492:4522   */\n      swap1\n      pop\n        /* \"#utility.yul\":4531:4564   */\n      tag_174\n        /* \"#utility.yul\":4559:4563   */\n      dup3\n        /* \"#utility.yul\":4551:4557   */\n      dup3\n        /* \"#utility.yul\":4531:4564   */\n      tag_175\n      jump\t// in\n    tag_174:\n        /* \"#utility.yul\":4441:4570   */\n      swap2\n      swap1\n      pop\n      jump\t// out\n        /* \"#utility.yul\":4576:4651   */\n    tag_173:\n        /* \"#utility.yul\":4609:4615   */\n      0x00\n        /* \"#utility.yul\":4642:4644   */\n      0x40\n        /* \"#utility.yul\":4636:4645   */\n      mload\n        /* \"#utility.yul\":4626:4645   */\n      swap1\n      pop\n        /* \"#utility.yul\":4576:4651   */\n      swap1\n      jump\t// out\n        /* \"#utility.yul\":4657:4965   */\n    tag_96:\n        /* \"#utility.yul\":4719:4723   */\n      0x00\n        /* \"#utility.yul\":4809:4827   */\n      0xffffffffffffffff\n        /* \"#utility.yul\":4801:4807   */\n      dup3\n        /* \"#utility.yul\":4798:4828   */\n      gt\n        /* \"#utility.yul\":4795:4851   */\n      iszero\n      tag_178\n      jumpi\n        /* \"#utility.yul\":4831:4849   */\n      tag_179\n      tag_180\n      jump\t// in\n    tag_179:\n        /* \"#utility.yul\":4795:4851   */\n    tag_178:\n        /* \"#utility.yul\":4869:4898   */\n      tag_181\n        /* \"#utility.yul\":4891:4897   */\n      dup3\n        /* \"#utility.yul\":4869:4898   */\n      tag_158\n      jump\t// in\n    tag_181:\n        /* \"#utility.yul\":4861:4898   */\n      swap1\n      pop\n        /* \"#utility.yul\":4953:4957   */\n      0x20\n        /* \"#utility.yul\":4947:4951   */\n      dup2\n        /* \"#utility.yul\":4943:4958   */\n      add\n        /* \"#utility.yul\":4935:4958   */\n      swap1\n      pop\n        /* \"#utility.yul\":4657:4965   */\n      swap2\n      swap1\n      pop\n      jump\t// out\n        /* \"#utility.yul\":4971:5070   */\n    tag_152:\n        /* \"#utility.yul\":5023:5029   */\n      0x00\n        /* \"#utility.yul\":5057:5062   */\n      dup2\n        /* \"#utility.yul\":5051:5063   */\n      mload\n        /* \"#utility.yul\":5041:5063   */\n      swap1\n      pop\n        /* \"#utility.yul\":4971:5070   */\n      swap2\n      swap1\n      pop\n      jump\t// out\n        /* \"#utility.yul\":5076:5245   */\n    tag_154:\n        /* \"#utility.yul\":5160:5171   */\n      0x00\n        /* \"#utility.yul\":5194:5200   */\n      dup3\n        /* \"#utility.yul\":5189:5192   */\n      dup3\n        /* \"#utility.yul\":5182:5201   */\n      mstore\n        /* \"#utility.yul\":5234:5238   */\n      0x20\n        /* \"#utility.yul\":5229:5232   */\n      dup3\n        /* \"#utility.yul\":5225:5239   */\n      add\n        /* \"#utility.yul\":5210:5239   */\n      swap1\n      pop\n        /* \"#utility.yul\":5076:5245   */\n      swap3\n      swap2\n      pop\n      pop\n      jump\t// out\n        /* \"#utility.yul\":5251:5341   */\n    tag_144:\n        /* \"#utility.yul\":5285:5292   */\n      0x00\n        /* \"#utility.yul\":5328:5333   */\n      dup2\n        /* \"#utility.yul\":5321:5334   */\n      iszero\n        /* \"#utility.yul\":5314:5335   */\n      iszero\n        /* \"#utility.yul\":5303:5335   */\n      swap1\n      pop\n        /* \"#utility.yul\":5251:5341   */\n      swap2\n      swap1\n      pop\n      jump\t// out\n        /* \"#utility.yul\":5347:5423   */\n    tag_148:\n        /* \"#utility.yul\":5383:5390   */\n      0x00\n        /* \"#utility.yul\":5412:5417   */\n      dup2\n        /* \"#utility.yul\":5401:5417   */\n      swap1\n      pop\n        /* \"#utility.yul\":5347:5423   */\n      swap2\n      swap1\n      pop\n      jump\t// out\n        /* \"#utility.yul\":5429:5506   */\n    tag_162:\n        /* \"#utility.yul\":5466:5473   */\n      0x00\n        /* \"#utility.yul\":5495:5500   */\n      dup2\n        /* \"#utility.yul\":5484:5500   */\n      swap1\n      pop\n        /* \"#utility.yul\":5429:5506   */\n      swap2\n      swap1\n      pop\n      jump\t// out\n        /* \"#utility.yul\":5512:5666   */\n    tag_102:\n        /* \"#utility.yul\":5596:5602   */\n      dup3\n        /* \"#utility.yul\":5591:5594   */\n      dup2\n        /* \"#utility.yul\":5586:5589   */\n      dup4\n        /* \"#utility.yul\":5573:5603   */\n      calldatacopy\n        /* \"#utility.yul\":5658:5659   */\n      0x00\n        /* \"#utility.yul\":5649:5655   */\n      dup4\n        /* \"#utility.yul\":5644:5647   */\n      dup4\n        /* \"#utility.yul\":5640:5656   */\n      add\n        /* \"#utility.yul\":5633:5660   */\n      mstore\n        /* \"#utility.yul\":5512:5666   */\n      pop\n      pop\n      pop\n      jump\t// out\n        /* \"#utility.yul\":5672:5979   */\n    tag_156:\n        /* \"#utility.yul\":5740:5741   */\n      0x00\n        /* \"#utility.yul\":5750:5863   */\n    tag_189:\n        /* \"#utility.yul\":5764:5770   */\n      dup4\n        /* \"#utility.yul\":5761:5762   */\n      dup2\n        /* \"#utility.yul\":5758:5771   */\n      lt\n        /* \"#utility.yul\":5750:5863   */\n      iszero\n      tag_191\n      jumpi\n        /* \"#utility.yul\":5849:5850   */\n      dup1\n        /* \"#utility.yul\":5844:5847   */\n      dup3\n        /* \"#utility.yul\":5840:5851   */\n      add\n        /* \"#utility.yul\":5834:5852   */\n      mload\n        /* \"#utility.yul\":5830:5831   */\n      dup2\n        /* \"#utility.yul\":5825:5828   */\n      dup5\n        /* \"#utility.yul\":5821:5832   */\n      add\n        /* \"#utility.yul\":5814:5853   */\n      mstore\n        /* \"#utility.yul\":5786:5788   */\n      0x20\n        /* \"#utility.yul\":5783:5784   */\n      dup2\n        /* \"#utility.yul\":5779:5789   */\n      add\n        /* \"#utility.yul\":5774:5789   */\n      swap1\n      pop\n        /* \"#utility.yul\":5750:5863   */\n      jump(tag_189)\n    tag_191:\n        /* \"#utility.yul\":5881:5887   */\n      dup4\n        /* \"#utility.yul\":5878:5879   */\n      dup2\n        /* \"#utility.yul\":5875:5888   */\n      gt\n        /* \"#utility.yul\":5872:5973   */\n      iszero\n      tag_192\n      jumpi\n        /* \"#utility.yul\":5961:5962   */\n      0x00\n        /* \"#utility.yul\":5952:5958   */\n      dup5\n        /* \"#utility.yul\":5947:5950   */\n      dup5\n        /* \"#utility.yul\":5943:5959   */\n      add\n        /* \"#utility.yul\":5936:5963   */\n      mstore\n        /* \"#utility.yul\":5872:5973   */\n    tag_192:\n        /* \"#utility.yul\":5721:5979   */\n      pop\n        /* \"#utility.yul\":5672:5979   */\n      pop\n      pop\n      pop\n      jump\t// out\n        /* \"#utility.yul\":5985:6305   */\n    tag_62:\n        /* \"#utility.yul\":6029:6035   */\n      0x00\n        /* \"#utility.yul\":6066:6067   */\n      0x02\n        /* \"#utility.yul\":6060:6064   */\n      dup3\n        /* \"#utility.yul\":6056:6068   */\n      div\n        /* \"#utility.yul\":6046:6068   */\n      swap1\n      pop\n        /* \"#utility.yul\":6113:6114   */\n      0x01\n        /* \"#utility.yul\":6107:6111   */\n      dup3\n        /* \"#utility.yul\":6103:6115   */\n      and\n        /* \"#utility.yul\":6134:6152   */\n      dup1\n        /* \"#utility.yul\":6124:6205   */\n      tag_194\n      jumpi\n        /* \"#utility.yul\":6190:6194   */\n      0x7f\n        /* \"#utility.yul\":6182:6188   */\n      dup3\n        /* \"#utility.yul\":6178:6195   */\n      and\n        /* \"#utility.yul\":6168:6195   */\n      swap2\n      pop\n        /* \"#utility.yul\":6124:6205   */\n    tag_194:\n        /* \"#utility.yul\":6252:6254   */\n      0x20\n        /* \"#utility.yul\":6244:6250   */\n      dup3\n        /* \"#utility.yul\":6241:6255   */\n      lt\n        /* \"#utility.yul\":6221:6239   */\n      dup2\n        /* \"#utility.yul\":6218:6256   */\n      eq\n        /* \"#utility.yul\":6215:6299   */\n      iszero\n      tag_195\n      jumpi\n        /* \"#utility.yul\":6271:6289   */\n      tag_196\n      tag_197\n      jump\t// in\n    tag_196:\n        /* \"#utility.yul\":6215:6299   */\n    tag_195:\n        /* \"#utility.yul\":6036:6305   */\n      pop\n        /* \"#utility.yul\":5985:6305   */\n      swap2\n      swap1\n      pop\n      jump\t// out\n        /* \"#utility.yul\":6311:6592   */\n    tag_175:\n        /* \"#utility.yul\":6394:6421   */\n      tag_199\n        /* \"#utility.yul\":6416:6420   */\n      dup3\n        /* \"#utility.yul\":6394:6421   */\n      tag_158\n      jump\t// in\n    tag_199:\n        /* \"#utility.yul\":6386:6392   */\n      dup2\n        /* \"#utility.yul\":6382:6422   */\n      add\n        /* \"#utility.yul\":6524:6530   */\n      dup2\n        /* \"#utility.yul\":6512:6522   */\n      dup2\n        /* \"#utility.yul\":6509:6531   */\n      lt\n        /* \"#utility.yul\":6488:6506   */\n      0xffffffffffffffff\n        /* \"#utility.yul\":6476:6486   */\n      dup3\n        /* \"#utility.yul\":6473:6507   */\n      gt\n        /* \"#utility.yul\":6470:6532   */\n      or\n        /* \"#utility.yul\":6467:6555   */\n      iszero\n      tag_200\n      jumpi\n        /* \"#utility.yul\":6535:6553   */\n      tag_201\n      tag_180\n      jump\t// in\n    tag_201:\n        /* \"#utility.yul\":6467:6555   */\n    tag_200:\n        /* \"#utility.yul\":6575:6585   */\n      dup1\n        /* \"#utility.yul\":6571:6573   */\n      0x40\n        /* \"#utility.yul\":6564:6586   */\n      mstore\n        /* \"#utility.yul\":6354:6592   */\n      pop\n        /* \"#utility.yul\":6311:6592   */\n      pop\n      pop\n      jump\t// out\n        /* \"#utility.yul\":6598:6778   */\n    tag_197:\n        /* \"#utility.yul\":6646:6723   */\n      0x4e487b7100000000000000000000000000000000000000000000000000000000\n        /* \"#utility.yul\":6643:6644   */\n      0x00\n        /* \"#utility.yul\":6636:6724   */\n      mstore\n        /* \"#utility.yul\":6743:6747   */\n      0x22\n        /* \"#utility.yul\":6740:6741   */\n      0x04\n        /* \"#utility.yul\":6733:6748   */\n      mstore\n        /* \"#utility.yul\":6767:6771   */\n      0x24\n        /* \"#utility.yul\":6764:6765   */\n      0x00\n        /* \"#utility.yul\":6757:6772   */\n      revert\n        /* \"#utility.yul\":6784:6964   */\n    tag_180:\n        /* \"#utility.yul\":6832:6909   */\n      0x4e487b7100000000000000000000000000000000000000000000000000000000\n        /* \"#utility.yul\":6829:6830   */\n      0x00\n        /* \"#utility.yul\":6822:6910   */\n      mstore\n        /* \"#utility.yul\":6929:6933   */\n      0x41\n        /* \"#utility.yul\":6926:6927   */\n      0x04\n        /* \"#utility.yul\":6919:6934   */\n      mstore\n        /* \"#utility.yul\":6953:6957   */\n      0x24\n        /* \"#utility.yul\":6950:6951   */\n      0x00\n        /* \"#utility.yul\":6943:6958   */\n      revert\n        /* \"#utility.yul\":6970:7087   */\n    tag_115:\n        /* \"#utility.yul\":7079:7080   */\n      0x00\n        /* \"#utility.yul\":7076:7077   */\n      dup1\n        /* \"#utility.yul\":7069:7081   */\n      revert\n        /* \"#utility.yul\":7093:7210   */\n    tag_100:\n        /* \"#utility.yul\":7202:7203   */\n      0x00\n        /* \"#utility.yul\":7199:7200   */\n      dup1\n        /* \"#utility.yul\":7192:7204   */\n      revert\n        /* \"#utility.yul\":7216:7333   */\n    tag_135:\n        /* \"#utility.yul\":7325:7326   */\n      0x00\n        /* \"#utility.yul\":7322:7323   */\n      dup1\n        /* \"#utility.yul\":7315:7327   */\n      revert\n        /* \"#utility.yul\":7339:7456   */\n    tag_124:\n        /* \"#utility.yul\":7448:7449   */\n      0x00\n        /* \"#utility.yul\":7445:7446   */\n      dup1\n        /* \"#utility.yul\":7438:7450   */\n      revert\n        /* \"#utility.yul\":7462:7564   */\n    tag_158:\n        /* \"#utility.yul\":7503:7509   */\n      0x00\n        /* \"#utility.yul\":7554:7556   */\n      0x1f\n        /* \"#utility.yul\":7550:7557   */\n      not\n        /* \"#utility.yul\":7545:7547   */\n      0x1f\n        /* \"#utility.yul\":7538:7543   */\n      dup4\n        /* \"#utility.yul\":7534:7548   */\n      add\n        /* \"#utility.yul\":7530:7558   */\n      and\n        /* \"#utility.yul\":7520:7558   */\n      swap1\n      pop\n        /* \"#utility.yul\":7462:7564   */\n      swap2\n      swap1\n      pop\n      jump\t// out\n        /* \"#utility.yul\":7570:7686   */\n    tag_106:\n        /* \"#utility.yul\":7640:7661   */\n      tag_210\n        /* \"#utility.yul\":7655:7660   */\n      dup2\n        /* \"#utility.yul\":7640:7661   */\n      tag_144\n      jump\t// in\n    tag_210:\n        /* \"#utility.yul\":7633:7638   */\n      dup2\n        /* \"#utility.yul\":7630:7662   */\n      eq\n        /* \"#utility.yul\":7620:7680   */\n      tag_211\n      jumpi\n        /* \"#utility.yul\":7676:7677   */\n      0x00\n        /* \"#utility.yul\":7673:7674   */\n      dup1\n        /* \"#utility.yul\":7666:7678   */\n      revert\n        /* \"#utility.yul\":7620:7680   */\n    tag_211:\n        /* \"#utility.yul\":7570:7686   */\n      pop\n      jump\t// out\n        /* \"#utility.yul\":7692:7812   */\n    tag_110:\n        /* \"#utility.yul\":7764:7787   */\n      tag_213\n        /* \"#utility.yul\":7781:7786   */\n      dup2\n        /* \"#utility.yul\":7764:7787   */\n      tag_148\n      jump\t// in\n    tag_213:\n        /* \"#utility.yul\":7757:7762   */\n      dup2\n        /* \"#utility.yul\":7754:7788   */\n      eq\n        /* \"#utility.yul\":7744:7806   */\n      tag_214\n      jumpi\n        /* \"#utility.yul\":7802:7803   */\n      0x00\n        /* \"#utility.yul\":7799:7800   */\n      dup1\n        /* \"#utility.yul\":7792:7804   */\n      revert\n        /* \"#utility.yul\":7744:7806   */\n    tag_214:\n        /* \"#utility.yul\":7692:7812   */\n      pop\n      jump\t// out\n        /* \"#utility.yul\":7818:7940   */\n    tag_120:\n        /* \"#utility.yul\":7891:7915   */\n      tag_216\n        /* \"#utility.yul\":7909:7914   */\n      dup2\n        /* \"#utility.yul\":7891:7915   */\n      tag_162\n      jump\t// in\n    tag_216:\n        /* \"#utility.yul\":7884:7889   */\n      dup2\n        /* \"#utility.yul\":7881:7916   */\n      eq\n        /* \"#utility.yul\":7871:7934   */\n      tag_217\n      jumpi\n        /* \"#utility.yul\":7930:7931   */\n      0x00\n        /* \"#utility.yul\":7927:7928   */\n      dup1\n        /* \"#utility.yul\":7920:7932   */\n      revert\n        /* \"#utility.yul\":7871:7934   */\n    tag_217:\n        /* \"#utility.yul\":7818:7940   */\n      pop\n      jump\t// out\n\n    auxdata: 0xa264697066735822122034939f1357d08f3656007cfe2923335e63d7f612fde5da090c373438bce5873064736f6c63430008070033\n}\n",
				"bytecode": {
					"linkReferences": {},
					"object": "608060405234801561001057600080fd5b506108fd806100206000396000f3fe608060405234801561001057600080fd5b50600436106100b45760003560e01c8063612d997811610071578063612d99781461016b5780636cabc40014610187578063a1c51915146101a3578063c23558ad146101c1578063d46300fd146101df578063fa2e6f89146101fd576100b4565b806309cdcf9b146100b95780630c55699c146100d55780630dbe671f146100f35780633d6f9868146101115780634df7e3d01461012f5780635197c7aa1461014d575b600080fd5b6100d360048036038101906100ce91906105c2565b610219565b005b6100dd610223565b6040516100ea919061068b565b60405180910390f35b6100fb6102b1565b6040516101089190610670565b60405180910390f35b6101196102b7565b6040516101269190610655565b60405180910390f35b6101376102ce565b60405161014491906106ad565b60405180910390f35b6101556102d4565b604051610162919061068b565b60405180910390f35b61018560048036038101906101809190610579565b610366565b005b6101a1600480360381019061019c919061054c565b610380565b005b6101ab61038a565b6040516101b891906106ad565b60405180910390f35b6101c9610394565b6040516101d69190610655565b60405180910390f35b6101e76103a7565b6040516101f49190610670565b60405180910390f35b6102176004803603810190610212919061051f565b6103b0565b005b8060018190555050565b600280546102309061079c565b80601f016020809104026020016040519081016040528092919081815260200182805461025c9061079c565b80156102a95780601f1061027e576101008083540402835291602001916102a9565b820191906000526020600020905b81548152906001019060200180831161028c57829003601f168201915b505050505081565b60005481565b6000600360009054906101000a900460ff16905090565b60015481565b6060600280546102e39061079c565b80601f016020809104026020016040519081016040528092919081815260200182805461030f9061079c565b801561035c5780601f106103315761010080835404028352916020019161035c565b820191906000526020600020905b81548152906001019060200180831161033f57829003601f168201915b5050505050905090565b806002908051906020019061037c9291906103cd565b5050565b8060008190555050565b6000600154905090565b600360009054906101000a900460ff1681565b60008054905090565b80600360006101000a81548160ff02191690831515021790555050565b8280546103d99061079c565b90600052602060002090601f0160209004810192826103fb5760008555610442565b82601f1061041457805160ff1916838001178555610442565b82800160010185558215610442579182015b82811115610441578251825591602001919060010190610426565b5b50905061044f9190610453565b5090565b5b8082111561046c576000816000905550600101610454565b5090565b600061048361047e846106ed565b6106c8565b90508281526020810184848401111561049f5761049e610862565b5b6104aa84828561075a565b509392505050565b6000813590506104c181610882565b92915050565b6000813590506104d681610899565b92915050565b600082601f8301126104f1576104f061085d565b5b8135610501848260208601610470565b91505092915050565b600081359050610519816108b0565b92915050565b6000602082840312156105355761053461086c565b5b6000610543848285016104b2565b91505092915050565b6000602082840312156105625761056161086c565b5b6000610570848285016104c7565b91505092915050565b60006020828403121561058f5761058e61086c565b5b600082013567ffffffffffffffff8111156105ad576105ac610867565b5b6105b9848285016104dc565b91505092915050565b6000602082840312156105d8576105d761086c565b5b60006105e68482850161050a565b91505092915050565b6105f88161073a565b82525050565b61060781610746565b82525050565b60006106188261071e565b6106228185610729565b9350610632818560208601610769565b61063b81610871565b840191505092915050565b61064f81610750565b82525050565b600060208201905061066a60008301846105ef565b92915050565b600060208201905061068560008301846105fe565b92915050565b600060208201905081810360008301526106a5818461060d565b905092915050565b60006020820190506106c26000830184610646565b92915050565b60006106d26106e3565b90506106de82826107ce565b919050565b6000604051905090565b600067ffffffffffffffff8211156107085761070761082e565b5b61071182610871565b9050602081019050919050565b600081519050919050565b600082825260208201905092915050565b60008115159050919050565b6000819050919050565b6000819050919050565b82818337600083830152505050565b60005b8381101561078757808201518184015260208101905061076c565b83811115610796576000848401525b50505050565b600060028204905060018216806107b457607f821691505b602082108114156107c8576107c76107ff565b5b50919050565b6107d782610871565b810181811067ffffffffffffffff821117156107f6576107f561082e565b5b80604052505050565b7f4e487b7100000000000000000000000000000000000000000000000000000000600052602260045260246000fd5b7f4e487b7100000000000000000000000000000000000000000000000000000000600052604160045260246000fd5b600080fd5b600080fd5b600080fd5b600080fd5b6000601f19601f8301169050919050565b61088b8161073a565b811461089657600080fd5b50565b6108a281610746565b81146108ad57600080fd5b50565b6108b981610750565b81146108c457600080fd5b5056fea264697066735822122034939f1357d08f3656007cfe2923335e63d7f612fde5da090c373438bce5873064736f6c63430008070033",
					"opcodes": "PUSH1 0x80 PUSH1 0x40 MSTORE CALLVALUE DUP1 ISZERO PUSH2 0x10 JUMPI PUSH1 0x0 DUP1 REVERT JUMPDEST POP PUSH2 0x8FD DUP1 PUSH2 0x20 PUSH1 0x0 CODECOPY PUSH1 0x0 RETURN INVALID PUSH1 0x80 PUSH1 0x40 MSTORE CALLVALUE DUP1 ISZERO PUSH2 0x10 JUMPI PUSH1 0x0 DUP1 REVERT JUMPDEST POP PUSH1 0x4 CALLDATASIZE LT PUSH2 0xB4 JUMPI PUSH1 0x0 CALLDATALOAD PUSH1 0xE0 SHR DUP1 PUSH4 0x612D9978 GT PUSH2 0x71 JUMPI DUP1 PUSH4 0x612D9978 EQ PUSH2 0x16B JUMPI DUP1 PUSH4 0x6CABC400 EQ PUSH2 0x187 JUMPI DUP1 PUSH4 0xA1C51915 EQ PUSH2 0x1A3 JUMPI DUP1 PUSH4 0xC23558AD EQ PUSH2 0x1C1 JUMPI DUP1 PUSH4 0xD46300FD EQ PUSH2 0x1DF JUMPI DUP1 PUSH4 0xFA2E6F89 EQ PUSH2 0x1FD JUMPI PUSH2 0xB4 JUMP JUMPDEST DUP1 PUSH4 0x9CDCF9B EQ PUSH2 0xB9 JUMPI DUP1 PUSH4 0xC55699C EQ PUSH2 0xD5 JUMPI DUP1 PUSH4 0xDBE671F EQ PUSH2 0xF3 JUMPI DUP1 PUSH4 0x3D6F9868 EQ PUSH2 0x111 JUMPI DUP1 PUSH4 0x4DF7E3D0 EQ PUSH2 0x12F JUMPI DUP1 PUSH4 0x5197C7AA EQ PUSH2 0x14D JUMPI JUMPDEST PUSH1 0x0 DUP1 REVERT JUMPDEST PUSH2 0xD3 PUSH1 0x4 DUP1 CALLDATASIZE SUB DUP2 ADD SWAP1 PUSH2 0xCE SWAP2 SWAP1 PUSH2 0x5C2 JUMP JUMPDEST PUSH2 0x219 JUMP JUMPDEST STOP JUMPDEST PUSH2 0xDD PUSH2 0x223 JUMP JUMPDEST PUSH1 0x40 MLOAD PUSH2 0xEA SWAP2 SWAP1 PUSH2 0x68B JUMP JUMPDEST PUSH1 0x40 MLOAD DUP1 SWAP2 SUB SWAP1 RETURN JUMPDEST PUSH2 0xFB PUSH2 0x2B1 JUMP JUMPDEST PUSH1 0x40 MLOAD PUSH2 0x108 SWAP2 SWAP1 PUSH2 0x670 JUMP JUMPDEST PUSH1 0x40 MLOAD DUP1 SWAP2 SUB SWAP1 RETURN JUMPDEST PUSH2 0x119 PUSH2 0x2B7 JUMP JUMPDEST PUSH1 0x40 MLOAD PUSH2 0x126 SWAP2 SWAP1 PUSH2 0x655 JUMP JUMPDEST PUSH1 0x40 MLOAD DUP1 SWAP2 SUB SWAP1 RETURN JUMPDEST PUSH2 0x137 PUSH2 0x2CE JUMP JUMPDEST PUSH1 0x40 MLOAD PUSH2 0x144 SWAP2 SWAP1 PUSH2 0x6AD JUMP JUMPDEST PUSH1 0x40 MLOAD DUP1 SWAP2 SUB SWAP1 RETURN JUMPDEST PUSH2 0x155 PUSH2 0x2D4 JUMP JUMPDEST PUSH1 0x40 MLOAD PUSH2 0x162 SWAP2 SWAP1 PUSH2 0x68B JUMP JUMPDEST PUSH1 0x40 MLOAD DUP1 SWAP2 SUB SWAP1 RETURN JUMPDEST PUSH2 0x185 PUSH1 0x4 DUP1 CALLDATASIZE SUB DUP2 ADD SWAP1 PUSH2 0x180 SWAP2 SWAP1 PUSH2 0x579 JUMP JUMPDEST PUSH2 0x366 JUMP JUMPDEST STOP JUMPDEST PUSH2 0x1A1 PUSH1 0x4 DUP1 CALLDATASIZE SUB DUP2 ADD SWAP1 PUSH2 0x19C SWAP2 SWAP1 PUSH2 0x54C JUMP JUMPDEST PUSH2 0x380 JUMP JUMPDEST STOP JUMPDEST PUSH2 0x1AB PUSH2 0x38A JUMP JUMPDEST PUSH1 0x40 MLOAD PUSH2 0x1B8 SWAP2 SWAP1 PUSH2 0x6AD JUMP JUMPDEST PUSH1 0x40 MLOAD DUP1 SWAP2 SUB SWAP1 RETURN JUMPDEST PUSH2 0x1C9 PUSH2 0x394 JUMP JUMPDEST PUSH1 0x40 MLOAD PUSH2 0x1D6 SWAP2 SWAP1 PUSH2 0x655 JUMP JUMPDEST PUSH1 0x40 MLOAD DUP1 SWAP2 SUB SWAP1 RETURN JUMPDEST PUSH2 0x1E7 PUSH2 0x3A7 JUMP JUMPDEST PUSH1 0x40 MLOAD PUSH2 0x1F4 SWAP2 SWAP1 PUSH2 0x670 JUMP JUMPDEST PUSH1 0x40 MLOAD DUP1 SWAP2 SUB SWAP1 RETURN JUMPDEST PUSH2 0x217 PUSH1 0x4 DUP1 CALLDATASIZE SUB DUP2 ADD SWAP1 PUSH2 0x212 SWAP2 SWAP1 PUSH2 0x51F JUMP JUMPDEST PUSH2 0x3B0 JUMP JUMPDEST STOP JUMPDEST DUP1 PUSH1 0x1 DUP2 SWAP1 SSTORE POP POP JUMP JUMPDEST PUSH1 0x2 DUP1 SLOAD PUSH2 0x230 SWAP1 PUSH2 0x79C JUMP JUMPDEST DUP1 PUSH1 0x1F ADD PUSH1 0x20 DUP1 SWAP2 DIV MUL PUSH1 0x20 ADD PUSH1 0x40 MLOAD SWAP1 DUP2 ADD PUSH1 0x40 MSTORE DUP1 SWAP3 SWAP2 SWAP1 DUP2 DUP2 MSTORE PUSH1 0x20 ADD DUP3 DUP1 SLOAD PUSH2 0x25C SWAP1 PUSH2 0x79C JUMP JUMPDEST DUP1 ISZERO PUSH2 0x2A9 JUMPI DUP1 PUSH1 0x1F LT PUSH2 0x27E JUMPI PUSH2 0x100 DUP1 DUP4 SLOAD DIV MUL DUP4 MSTORE SWAP2 PUSH1 0x20 ADD SWAP2 PUSH2 0x2A9 JUMP JUMPDEST DUP3 ADD SWAP2 SWAP1 PUSH1 0x0 MSTORE PUSH1 0x20 PUSH1 0x0 KECCAK256 SWAP1 JUMPDEST DUP2 SLOAD DUP2 MSTORE SWAP1 PUSH1 0x1 ADD SWAP1 PUSH1 0x20 ADD DUP1 DUP4 GT PUSH2 0x28C JUMPI DUP3 SWAP1 SUB PUSH1 0x1F AND DUP3 ADD SWAP2 JUMPDEST POP POP POP POP POP DUP2 JUMP JUMPDEST PUSH1 0x0 SLOAD DUP2 JUMP JUMPDEST PUSH1 0x0 PUSH1 0x3 PUSH1 0x0 SWAP1 SLOAD SWAP1 PUSH2 0x100 EXP SWAP1 DIV PUSH1 0xFF AND SWAP1 POP SWAP1 JUMP JUMPDEST PUSH1 0x1 SLOAD DUP2 JUMP JUMPDEST PUSH1 0x60 PUSH1 0x2 DUP1 SLOAD PUSH2 0x2E3 SWAP1 PUSH2 0x79C JUMP JUMPDEST DUP1 PUSH1 0x1F ADD PUSH1 0x20 DUP1 SWAP2 DIV MUL PUSH1 0x20 ADD PUSH1 0x40 MLOAD SWAP1 DUP2 ADD PUSH1 0x40 MSTORE DUP1 SWAP3 SWAP2 SWAP1 DUP2 DUP2 MSTORE PUSH1 0x20 ADD DUP3 DUP1 SLOAD PUSH2 0x30F SWAP1 PUSH2 0x79C JUMP JUMPDEST DUP1 ISZERO PUSH2 0x35C JUMPI DUP1 PUSH1 0x1F LT PUSH2 0x331 JUMPI PUSH2 0x100 DUP1 DUP4 SLOAD DIV MUL DUP4 MSTORE SWAP2 PUSH1 0x20 ADD SWAP2 PUSH2 0x35C JUMP JUMPDEST DUP3 ADD SWAP2 SWAP1 PUSH1 0x0 MSTORE PUSH1 0x20 PUSH1 0x0 KECCAK256 SWAP1 JUMPDEST DUP2 SLOAD DUP2 MSTORE SWAP1 PUSH1 0x1 ADD SWAP1 PUSH1 0x20 ADD DUP1 DUP4 GT PUSH2 0x33F JUMPI DUP3 SWAP1 SUB PUSH1 0x1F AND DUP3 ADD SWAP2 JUMPDEST POP POP POP POP POP SWAP1 POP SWAP1 JUMP JUMPDEST DUP1 PUSH1 0x2 SWAP1 DUP1 MLOAD SWAP1 PUSH1 0x20 ADD SWAP1 PUSH2 0x37C SWAP3 SWAP2 SWAP1 PUSH2 0x3CD JUMP JUMPDEST POP POP JUMP JUMPDEST DUP1 PUSH1 0x0 DUP2 SWAP1 SSTORE POP POP JUMP JUMPDEST PUSH1 0x0 PUSH1 0x1 SLOAD SWAP1 POP SWAP1 JUMP JUMPDEST PUSH1 0x3 PUSH1 0x0 SWAP1 SLOAD SWAP1 PUSH2 0x100 EXP SWAP1 DIV PUSH1 0xFF AND DUP2 JUMP JUMPDEST PUSH1 0x0 DUP1 SLOAD SWAP1 POP SWAP1 JUMP JUMPDEST DUP1 PUSH1 0x3 PUSH1 0x0 PUSH2 0x100 EXP DUP2 SLOAD DUP2 PUSH1 0xFF MUL NOT AND SWAP1 DUP4 ISZERO ISZERO MUL OR SWAP1 SSTORE POP POP JUMP JUMPDEST DUP3 DUP1 SLOAD PUSH2 0x3D9 SWAP1 PUSH2 0x79C JUMP JUMPDEST SWAP1 PUSH1 0x0 MSTORE PUSH1 0x20 PUSH1 0x0 KECCAK256 SWAP1 PUSH1 0x1F ADD PUSH1 0x20 SWAP1 DIV DUP2 ADD SWAP3 DUP3 PUSH2 0x3FB JUMPI PUSH1 0x0 DUP6 SSTORE PUSH2 0x442 JUMP JUMPDEST DUP3 PUSH1 0x1F LT PUSH2 0x414 JUMPI DUP1 MLOAD PUSH1 0xFF NOT AND DUP4 DUP1 ADD OR DUP6 SSTORE PUSH2 0x442 JUMP JUMPDEST DUP3 DUP1 ADD PUSH1 0x1 ADD DUP6 SSTORE DUP3 ISZERO PUSH2 0x442 JUMPI SWAP2 DUP3 ADD JUMPDEST DUP3 DUP2 GT ISZERO PUSH2 0x441 JUMPI DUP3 MLOAD DUP3 SSTORE SWAP2 PUSH1 0x20 ADD SWAP2 SWAP1 PUSH1 0x1 ADD SWAP1 PUSH2 0x426 JUMP JUMPDEST JUMPDEST POP SWAP1 POP PUSH2 0x44F SWAP2 SWAP1 PUSH2 0x453 JUMP JUMPDEST POP SWAP1 JUMP JUMPDEST JUMPDEST DUP1 DUP3 GT ISZERO PUSH2 0x46C JUMPI PUSH1 0x0 DUP2 PUSH1 0x0 SWAP1 SSTORE POP PUSH1 0x1 ADD PUSH2 0x454 JUMP JUMPDEST POP SWAP1 JUMP JUMPDEST PUSH1 0x0 PUSH2 0x483 PUSH2 0x47E DUP5 PUSH2 0x6ED JUMP JUMPDEST PUSH2 0x6C8 JUMP JUMPDEST SWAP1 POP DUP3 DUP2 MSTORE PUSH1 0x20 DUP2 ADD DUP5 DUP5 DUP5 ADD GT ISZERO PUSH2 0x49F JUMPI PUSH2 0x49E PUSH2 0x862 JUMP JUMPDEST JUMPDEST PUSH2 0x4AA DUP5 DUP3 DUP6 PUSH2 0x75A JUMP JUMPDEST POP SWAP4 SWAP3 POP POP POP JUMP JUMPDEST PUSH1 0x0 DUP2 CALLDATALOAD SWAP1 POP PUSH2 0x4C1 DUP2 PUSH2 0x882 JUMP JUMPDEST SWAP3 SWAP2 POP POP JUMP JUMPDEST PUSH1 0x0 DUP2 CALLDATALOAD SWAP1 POP PUSH2 0x4D6 DUP2 PUSH2 0x899 JUMP JUMPDEST SWAP3 SWAP2 POP POP JUMP JUMPDEST PUSH1 0x0 DUP3 PUSH1 0x1F DUP4 ADD SLT PUSH2 0x4F1 JUMPI PUSH2 0x4F0 PUSH2 0x85D JUMP JUMPDEST JUMPDEST DUP2 CALLDATALOAD PUSH2 0x501 DUP5 DUP3 PUSH1 0x20 DUP7 ADD PUSH2 0x470 JUMP JUMPDEST SWAP2 POP POP SWAP3 SWAP2 POP POP JUMP JUMPDEST PUSH1 0x0 DUP2 CALLDATALOAD SWAP1 POP PUSH2 0x519 DUP2 PUSH2 0x8B0 JUMP JUMPDEST SWAP3 SWAP2 POP POP JUMP JUMPDEST PUSH1 0x0 PUSH1 0x20 DUP3 DUP5 SUB SLT ISZERO PUSH2 0x535 JUMPI PUSH2 0x534 PUSH2 0x86C JUMP JUMPDEST JUMPDEST PUSH1 0x0 PUSH2 0x543 DUP5 DUP3 DUP6 ADD PUSH2 0x4B2 JUMP JUMPDEST SWAP2 POP POP SWAP3 SWAP2 POP POP JUMP JUMPDEST PUSH1 0x0 PUSH1 0x20 DUP3 DUP5 SUB SLT ISZERO PUSH2 0x562 JUMPI PUSH2 0x561 PUSH2 0x86C JUMP JUMPDEST JUMPDEST PUSH1 0x0 PUSH2 0x570 DUP5 DUP3 DUP6 ADD PUSH2 0x4C7 JUMP JUMPDEST SWAP2 POP POP SWAP3 SWAP2 POP POP JUMP JUMPDEST PUSH1 0x0 PUSH1 0x20 DUP3 DUP5 SUB SLT ISZERO PUSH2 0x58F JUMPI PUSH2 0x58E PUSH2 0x86C JUMP JUMPDEST JUMPDEST PUSH1 0x0 DUP3 ADD CALLDATALOAD PUSH8 0xFFFFFFFFFFFFFFFF DUP2 GT ISZERO PUSH2 0x5AD JUMPI PUSH2 0x5AC PUSH2 0x867 JUMP JUMPDEST JUMPDEST PUSH2 0x5B9 DUP5 DUP3 DUP6 ADD PUSH2 0x4DC JUMP JUMPDEST SWAP2 POP POP SWAP3 SWAP2 POP POP JUMP JUMPDEST PUSH1 0x0 PUSH1 0x20 DUP3 DUP5 SUB SLT ISZERO PUSH2 0x5D8 JUMPI PUSH2 0x5D7 PUSH2 0x86C JUMP JUMPDEST JUMPDEST PUSH1 0x0 PUSH2 0x5E6 DUP5 DUP3 DUP6 ADD PUSH2 0x50A JUMP JUMPDEST SWAP2 POP POP SWAP3 SWAP2 POP POP JUMP JUMPDEST PUSH2 0x5F8 DUP2 PUSH2 0x73A JUMP JUMPDEST DUP3 MSTORE POP POP JUMP JUMPDEST PUSH2 0x607 DUP2 PUSH2 0x746 JUMP JUMPDEST DUP3 MSTORE POP POP JUMP JUMPDEST PUSH1 0x0 PUSH2 0x618 DUP3 PUSH2 0x71E JUMP JUMPDEST PUSH2 0x622 DUP2 DUP6 PUSH2 0x729 JUMP JUMPDEST SWAP4 POP PUSH2 0x632 DUP2 DUP6 PUSH1 0x20 DUP7 ADD PUSH2 0x769 JUMP JUMPDEST PUSH2 0x63B DUP2 PUSH2 0x871 JUMP JUMPDEST DUP5 ADD SWAP2 POP POP SWAP3 SWAP2 POP POP JUMP JUMPDEST PUSH2 0x64F DUP2 PUSH2 0x750 JUMP JUMPDEST DUP3 MSTORE POP POP JUMP JUMPDEST PUSH1 0x0 PUSH1 0x20 DUP3 ADD SWAP1 POP PUSH2 0x66A PUSH1 0x0 DUP4 ADD DUP5 PUSH2 0x5EF JUMP JUMPDEST SWAP3 SWAP2 POP POP JUMP JUMPDEST PUSH1 0x0 PUSH1 0x20 DUP3 ADD SWAP1 POP PUSH2 0x685 PUSH1 0x0 DUP4 ADD DUP5 PUSH2 0x5FE JUMP JUMPDEST SWAP3 SWAP2 POP POP JUMP JUMPDEST PUSH1 0x0 PUSH1 0x20 DUP3 ADD SWAP1 POP DUP2 DUP2 SUB PUSH1 0x0 DUP4 ADD MSTORE PUSH2 0x6A5 DUP2 DUP5 PUSH2 0x60D JUMP JUMPDEST SWAP1 POP SWAP3 SWAP2 POP POP JUMP JUMPDEST PUSH1 0x0 PUSH1 0x20 DUP3 ADD SWAP1 POP PUSH2 0x6C2 PUSH1 0x0 DUP4 ADD DUP5 PUSH2 0x646 JUMP JUMPDEST SWAP3 SWAP2 POP POP JUMP JUMPDEST PUSH1 0x0 PUSH2 0x6D2 PUSH2 0x6E3 JUMP JUMPDEST SWAP1 POP PUSH2 0x6DE DUP3 DUP3 PUSH2 0x7CE JUMP JUMPDEST SWAP2 SWAP1 POP JUMP JUMPDEST PUSH1 0x0 PUSH1 0x40 MLOAD SWAP1 POP SWAP1 JUMP JUMPDEST PUSH1 0x0 PUSH8 0xFFFFFFFFFFFFFFFF DUP3 GT ISZERO PUSH2 0x708 JUMPI PUSH2 0x707 PUSH2 0x82E JUMP JUMPDEST JUMPDEST PUSH2 0x711 DUP3 PUSH2 0x871 JUMP JUMPDEST SWAP1 POP PUSH1 0x20 DUP2 ADD SWAP1 POP SWAP2 SWAP1 POP JUMP JUMPDEST PUSH1 0x0 DUP2 MLOAD SWAP1 POP SWAP2 SWAP1 POP JUMP JUMPDEST PUSH1 0x0 DUP3 DUP3 MSTORE PUSH1 0x20 DUP3 ADD SWAP1 POP SWAP3 SWAP2 POP POP JUMP JUMPDEST PUSH1 0x0 DUP2 ISZERO ISZERO SWAP1 POP SWAP2 SWAP1 POP JUMP JUMPDEST PUSH1 0x0 DUP2 SWAP1 POP SWAP2 SWAP1 POP JUMP JUMPDEST PUSH1 0x0 DUP2 SWAP1 POP SWAP2 SWAP1 POP JUMP JUMPDEST DUP3 DUP2 DUP4 CALLDATACOPY PUSH1 0x0 DUP4 DUP4 ADD MSTORE POP POP POP JUMP JUMPDEST PUSH1 0x0 JUMPDEST DUP4 DUP2 LT ISZERO PUSH2 0x787 JUMPI DUP1 DUP3 ADD MLOAD DUP2 DUP5 ADD MSTORE PUSH1 0x20 DUP2 ADD SWAP1 POP PUSH2 0x76C JUMP JUMPDEST DUP4 DUP2 GT ISZERO PUSH2 0x796 JUMPI PUSH1 0x0 DUP5 DUP5 ADD MSTORE JUMPDEST POP POP POP POP JUMP JUMPDEST PUSH1 0x0 PUSH1 0x2 DUP3 DIV SWAP1 POP PUSH1 0x1 DUP3 AND DUP1 PUSH2 0x7B4 JUMPI PUSH1 0x7F DUP3 AND SWAP2 POP JUMPDEST PUSH1 0x20 DUP3 LT DUP2 EQ ISZERO PUSH2 0x7C8 JUMPI PUSH2 0x7C7 PUSH2 0x7FF JUMP JUMPDEST JUMPDEST POP SWAP2 SWAP1 POP JUMP JUMPDEST PUSH2 0x7D7 DUP3 PUSH2 0x871 JUMP JUMPDEST DUP2 ADD DUP2 DUP2 LT PUSH8 0xFFFFFFFFFFFFFFFF DUP3 GT OR ISZERO PUSH2 0x7F6 JUMPI PUSH2 0x7F5 PUSH2 0x82E JUMP JUMPDEST JUMPDEST DUP1 PUSH1 0x40 MSTORE POP POP POP JUMP JUMPDEST PUSH32 0x4E487B7100000000000000000000000000000000000000000000000000000000 PUSH1 0x0 MSTORE PUSH1 0x22 PUSH1 0x4 MSTORE PUSH1 0x24 PUSH1 0x0 REVERT JUMPDEST PUSH32 0x4E487B7100000000000000000000000000000000000000000000000000000000 PUSH1 0x0 MSTORE PUSH1 0x41 PUSH1 0x4 MSTORE PUSH1 0x24 PUSH1 0x0 REVERT JUMPDEST PUSH1 0x0 DUP1 REVERT JUMPDEST PUSH1 0x0 DUP1 REVERT JUMPDEST PUSH1 0x0 DUP1 REVERT JUMPDEST PUSH1 0x0 DUP1 REVERT JUMPDEST PUSH1 0x0 PUSH1 0x1F NOT PUSH1 0x1F DUP4 ADD AND SWAP1 POP SWAP2 SWAP1 POP JUMP JUMPDEST PUSH2 0x88B DUP2 PUSH2 0x73A JUMP JUMPDEST DUP2 EQ PUSH2 0x896 JUMPI PUSH1 0x0 DUP1 REVERT JUMPDEST POP JUMP JUMPDEST PUSH2 0x8A2 DUP2 PUSH2 0x746 JUMP JUMPDEST DUP2 EQ PUSH2 0x8AD JUMPI PUSH1 0x0 DUP1 REVERT JUMPDEST POP JUMP JUMPDEST PUSH2 0x8B9 DUP2 PUSH2 0x750 JUMP JUMPDEST DUP2 EQ PUSH2 0x8C4 JUMPI PUSH1 0x0 DUP1 REVERT JUMPDEST POP JUMP INVALID LOG2 PUSH5 0x6970667358 0x22 SLT KECCAK256 CALLVALUE SWAP4 SWAP16 SGT JUMPI 0xD0 DUP16 CALLDATASIZE JUMP STOP PUSH29 0xFE2923335E63D7F612FDE5DA090C373438BCE5873064736F6C63430008 SMOD STOP CALLER "
				},
				"gasEstimates": {
					"creation": {
						"codeDepositCost": "460200",
						"executionCost": "493",
						"totalCost": "460693"
					},
					"external": {
						"TorF()": "2537",
						"a()": "2474",
						"b()": "2518",
						"getA()": "2525",
						"getB()": "2481",
						"getX()": "infinite",
						"setA(int256)": "22542",
						"setB(uint256)": "22521",
						"setTorF()": "2546",
						"setTorF(bool)": "24789",
						"setX(string)": "infinite",
						"x()": "infinite"
					}
				},
				"methodIdentifiers": {
					"TorF()": "c23558ad",
					"a()": "0dbe671f",
					"b()": "4df7e3d0",
					"getA()": "d46300fd",
					"getB()": "a1c51915",
					"getX()": "5197c7aa",
					"setA(int256)": "6cabc400",
					"setB(uint256)": "09cdcf9b",
					"setTorF()": "3d6f9868",
					"setTorF(bool)": "fa2e6f89",
					"setX(string)": "612d9978",
					"x()": "0c55699c"
				}
			},
			"storageLayout": {
				"storage": [
					{
						"astId": 3,
						"contract": "contracts/challenge.sol:Simple",
						"label": "a",
						"offset": 0,
						"slot": "0",
						"type": "t_int256"
					},
					{
						"astId": 5,
						"contract": "contracts/challenge.sol:Simple",
						"label": "b",
						"offset": 0,
						"slot": "1",
						"type": "t_uint256"
					},
					{
						"astId": 7,
						"contract": "contracts/challenge.sol:Simple",
						"label": "x",
						"offset": 0,
						"slot": "2",
						"type": "t_string_storage"
					},
					{
						"astId": 9,
						"contract": "contracts/challenge.sol:Simple",
						"label": "TorF",
						"offset": 0,
						"slot": "3",
						"type": "t_bool"
					}
				],
				"types": {
					"t_bool": {
						"encoding": "inplace",
						"label": "bool",
						"numberOfBytes": "1"
					},
					"t_int256": {
						"encoding": "inplace",
						"label": "int256",
						"numberOfBytes": "32"
					},
					"t_string_storage": {
						"encoding": "bytes",
						"label": "string",
						"numberOfBytes": "32"
					},
					"t_uint256": {
						"encoding": "inplace",
						"label": "uint256",
						"numberOfBytes": "32"
					}
				}
			},
			"userdoc": {
				"kind": "user",
				"methods": {},
				"version": 1
			}
		}
	}
}